:020000040800F2
:10000000980800200D1200087112000871120008F3
:10001000711200087112000871120008000000003F
:100020000000000000000000000000007112000845
:10003000711200080000000071120008711200081F
:100040007112000871120008711200087112000884
:100050007112000871120008711200087112000874
:100060007112000871120008711200087112000864
:100070007112000871120008711200087112000854
:100080007112000871120008711200087112000844
:100090007112000871120008711200087112000834
:1000A0007112000871120008711200087112000824
:1000B0007112000871120008711200087112000814
:1000C0007112000871120008711200087112000804
:1000D00071120008711200087112000871120008F4
:1000E00071120008711200087112000871120008E4
:1000F00071120008711200087112000871120008D4
:1001000071120008711200087112000871120008C3
:1001100071120008711200087112000871120008B3
:1001200071120008711200087112000871120008A3
:100130007112000871120008711200087112000893
:100140007112000871120008711200087112000883
:100150007112000871120008711200087112000873
:100160007112000871120008711200087112000863
:100170007112000871120008711200087112000853
:100180007112000871120008711200087112000843
:100190007112000871120008711200087112000833
:1001A00071120008711200087112000880B582B047
:1001B00000AF4FF00003FB71214B1B78002B09D0DF
:1001C0001F4B1B78012B02D14FF0010333E04FF09E
:1001D000000330E000F05AF800F0B8F94FF00000EA
:1001E00000F040F80346BB804FF0000045F63C218C
:1001F00000F028F84FF0000000F034F803467B8050
:10020000BB884FF00000194600F01CF87A8845F6CC
:100210003C239A4202D14FF00103FB71FB79012B81
:1002200004D1074B4FF001021A7003E0044B4FF06A
:1002300002021A70FB79184607F10807BD4680BD17
:100240006C00002080B483B000AF78600B467B80E8
:100250007B6803F150437A881A8007F10C07BD468A
:1002600080BC704780B485B000AF78604FF0000369
:10027000FB817B6803F150431B88FB81FB89184697
:1002800007F11407BD4680BC704700BF80B582B03F
:1002900000AF4FF07E004FF0010101F083FD4FF001
:1002A00002033B714FF002037B714FF00003BB71FF
:1002B0004FF00003FB719F484FF005014FF00C0217
:1002C00002F098FC9B484FF006014FF00C0202F040
:1002D00091FC4FF060033B603B469648194602F0A4
:1002E000E5FB95484FF000014FF00C0202F082FC54
:1002F0004FF001033B603B468F48194602F0D6FBA6
:100300008E484FF000014FF00C0202F073FC8B4856
:100310004FF001014FF00C0202F06CFC87484FF0E7
:1003200008014FF00C0202F065FC84484FF009010F
:100330004FF00C0202F05EFC80484FF00A014FF0D3
:100340000C0202F057FC7D484FF00E014FF00C02FA
:1003500002F050FC79484FF00F014FF00C0202F010
:1003600049FC4CF203733B603B467448194602F06B
:100370009DFB73484FF000014FF00C0202F03AFC75
:100380006F484FF001014FF00C0202F033FC6C4853
:100390004FF007014FF00C0202F02CFC68484FF0C0
:1003A00008014FF00C0202F025FC65484FF00901EE
:1003B0004FF00C0202F01EFC61484FF00A014FF0B2
:1003C0000C0202F017FC5E484FF00B014FF00C02DC
:1003D00002F010FC5A484FF00C014FF00C0202F0F2
:1003E00009FC57484FF00D014FF00C0202F002FCDF
:1003F00053484FF00E014FF00C0202F0FBFB504847
:100400004FF00F014FF00C0202F0F4FB4FF6837334
:100410003B603B464A48194602F048FB49484FF0CA
:1004200000014FF00C0202F0E5FB46484FF00101DD
:100430004FF00C0202F0DEFB42484FF002014FF099
:100440000C0202F0D7FB3F484FF003014FF00C02C3
:1004500002F0D0FB3B484FF004014FF00C0202F0D9
:10046000C9FB38484FF005014FF00C0202F0C2FB07
:1004700034484FF00B014FF00C0202F0BBFB314847
:100480004FF00C014FF00C0202F0B4FB2D484FF07E
:100490000D014FF00C0202F0ADFB2A484FF00E01A7
:1004A0004FF00C0202F0A6FB26484FF00F014FF070
:1004B0000C0202F09FFB4FF63F033B603B46214896
:1004C000194602F0F3FA20484FF000014FF00C02F9
:1004D00002F090FB1C484FF001014FF00C0202F0BB
:1004E00089FB19484FF004014FF00C0202F082FB27
:1004F00015484FF005014FF00C0202F07BFB12484B
:100500004FF008014FF00C0202F074FB0E484FF060
:100510000F014FF00C0202F06DFB48F233133B6009
:100520003B460948194602F0C1FA07F10807BD46E3
:1005300080BD00BF0004024000080240000C0240E1
:1005400000100240001402400018024080B592B032
:1005500000AF4FF001004FF0010101F045FC4FF0FA
:1005600002033B604FF007037B604FF00403BB6066
:100570004FF00703FB604FF002033B614FF00203B3
:100580007B614FF00203BB614FF00103FB614FF051
:1005900000033B624FF004037B624FF01003BB6229
:1005A0004FF04003FB624FF4C0733B634FF0000316
:1005B0007B634FF40063BB634FF00003FB634FF4B6
:1005C00000533B643B467B6407F11C03184602F072
:1005D00063FE00F005F807F14807BD4680BD00BF87
:1005E00080B586B000AF4FF000037B614FF0010390
:1005F0007B604FF00803BB604FF00103FB604FF0DE
:1006000000033B6100BF4FF001004FF0200102F0FA
:100610004BFF0346002BF6D107F10403184602F006
:100620000BFF4FF00A0000F075F84FF002037B60FB
:100630004FF00803BB604FF00103FB604FF0000375
:100640003B6100BF4FF001004FF0200102F02CFF92
:100650000346002BF6D107F10403184602F0ECFE26
:100660004FF003037B604FF00803BB604FF00403BF
:10067000FB604FF000033B6100BF4FF001004FF003
:10068000200102F011FF0346002BF6D107F104030D
:10069000184602F0D1FE00BF4FF001004FF02001DC
:1006A00002F002FF0346002BF6D107F104031846BF
:1006B00002F0C2FE40F231237B614FF004037B6005
:1006C0004FF00803BB604FF00103FB607B693B61A7
:1006D00000BF4FF001004FF0200102F0E5FE03469D
:1006E000002BF6D107F10403184602F0A5FE40F2F4
:1006F000AB2002F0C5FE00BF4FF001004FF020011B
:1007000002F0D2FE0346002BF6D107F11807BD46D2
:1007100080BD00BF80B485B000AF78604FF00003AB
:10072000FB607B68084A02FB03F3FB6003E0FB68A5
:1007300003F1FF33FB60FB68002BF8D107F11407CE
:10074000BD4680BC704700BFA086010080B500AFE9
:100750004FF400004FF0010101F0ACFB4FF400003A
:100760004FF0000101F0A6FB80BD00BF80B487B050
:1007700000AF78604FF000037B614FF000033B61F6
:100780004FF00003FB604FF00003BB605A4A5A4B26
:1007900019685A4B01EA03031360574B564A116814
:1007A0007A68126841EA02021A60534B524A526B4D
:1007B00022F007025A63504B4F4A516B7A685268D5
:1007C00041EA02025A637B685B68002B0FD17B68A9
:1007D000DB684FEA03237B617B681B694FEA0343B5
:1007E0003B617B685B694FEA0363FB6046E07B68C3
:1007F0005B68012B0DD17B68DB684FEA03237B61CB
:100800007B681B694FEA03433B614FF00003FB60C9
:1008100034E07B685B68022B0DD17B68DB684FEAB4
:1008200043137B617B681B694FEAC3233B614FF035
:100830000003FB6022E07B685B68032B0FD17B68C1
:10084000DB684FEA43137B617B681B694FEA8323B4
:100850003B617B685B694FEAC333FB600EE07B68FA
:10086000DB684FEA03137B617B681B694FEA032354
:100870003B617B685B694FEA0333FB601E4B1E4A9A
:10088000916B78693A6910437A6892681043FA6804
:1008900040EA020241EA02029A63174B7A689269BF
:1008A000DA63154A144B1B6C23F47E5323F07F0349
:1008B0001364114B104A116C7A68D26941EA020242
:1008C0001A647B685B6A4FEA0343BB600A4B0A4ABF
:1008D000526C02F040425A64074B074A516C7A68E6
:1008E000106ABA6840EA020241EA02025A6407F159
:1008F0001C07BD4680BC704700B00240FCE0FCFF16
:1009000080B400AF044B044A126842F001021A603E
:10091000BD4680BC704700BF00B0024080B485B0C7
:1009200000AF78604FF00003FB730A4B5A687B6896
:1009300002EA0303002B03D04FF00103FB7302E034
:100940004FF00003FB73FB7B184607F11407BD460D
:1009500080BC704700B0024080B582B000AF324B1F
:100960001B78002B5AD14FF400004FF0010101F029
:100970005DFA2E4B9B6818464FF0010101F012FA08
:100980002A4B9B6918464FF0010101F00BFA4FF416
:1009900000004FF0010101F0AFFA4FF400004FF0FA
:1009A000000101F0A9FA214B1A68204B1B7B10466D
:1009B00019464FF0040202F01DF91C4B1A691B4B3B
:1009C0001B7F104619464FF0040202F013F94FF056
:1009D00002033B714FF002037B714FF00103BB71C7
:1009E0004FF00003FB71114B9B883B600F4B1A6863
:1009F0003B461046194602F059F80C4B9B8A3B6067
:100A00000A4B1A693B461046194602F04FF800F0AF
:100A1000F5F9054B4FF001021A7000E000BF07F135
:100A20000807BD4680BD00BF6D000020000000200B
:100A300080B584B000AF02460B46FA71BB714FF02F
:100A400000037B814FF44053FB6079484FF0010174
:100A500002F0C6FF4FF44053FB600DE0FB68002B33
:100A600004D0FB6803F1FF33FB6005E04FF0FF307B
:100A700000F0EAF90346D4E06D486E4903F070F8DF
:100A80000346002BEAD06A484FF0000103F006F855
:100A9000FB79674819464FF0000202F0E1FF4FF47E
:100AA0004053FB600DE0FB68002B04D0FB6803F1B2
:100AB000FF33FB6005E06FF0010000F0C5F903466D
:100AC000AFE05B485C4903F04BF80346002BEAD0EB
:100AD000574B1B8B4FF44053FB600DE0FB68002B22
:100AE00004D0FB6803F1FF33FB6005E06FF0020008
:100AF00000F0AAF9034694E04D48504903F030F85D
:100B00000346002BEAD0BB794948194603F00AF89E
:100B10004FF44053FB600DE0FB68002B04D0FB68F2
:100B200003F1FF33FB6005E06FF0030000F08CF988
:100B3000034676E03E48414903F012F80346002B95
:100B4000EAD03B483E4903F00BF80346002BE3D0C4
:100B500037484FF0010102F043FF4FF44053FB6070
:100B60000DE0FB68002B04D0FB6803F1FF33FB6052
:100B700005E06FF0040000F067F9034651E02C48EF
:100B80002C4902F0EDFF0346002BEAD0FB79284800
:100B900019464FF0010202F063FF4FF44053FB602F
:100BA0000DE0FB68002B04D0FB6803F1FF33FB6012
:100BB00005E06FF0050000F047F9034631E01C48FE
:100BC0001D4902F0CDFF0346002BEAD0184B1B8BCA
:100BD0004FF44053FB600DE0FB68002B04D0FB6832
:100BE00003F1FF33FB6005E06FF0060000F02CF925
:100BF000034616E00E48134902F0B2FF0346002BED
:100C0000EAD00B484FF0010102F00AFF084802F059
:100C100099FF03467B8106484FF0010102F03EFF39
:100C20007B891BB2184607F11007BD4680BD00BF87
:100C3000005C004001000010020000108000001065
:100C4000040000104000001080B584B000AF1346CF
:100C50000246FA710A46BA717B714FF000037B813C
:100C60004FF44053FB6055484FF0010102F0B8FECD
:100C70004FF44053FB600DE0FB68002B04D0FB6891
:100C800003F1FF33FB6005E04FF0FF3000F0DCF8CC
:100C900003468DE049484A4902F062FF0346002BB3
:100CA000EAD0FB79454819464FF0000202F0D8FE21
:100CB0004FF44053FB600DE0FB68002B04D0FB6851
:100CC00003F1FF33FB6005E06FF0010000F0BCF8BA
:100CD00003466DE039483B4902F042FF0346002BD2
:100CE000EAD0364B1B8B4FF44053FB600DE0FB68A2
:100CF000002B04D0FB6803F1FF33FB6005E06FF0CD
:100D0000020000F0A1F8034652E02C482E4902F000
:100D100027FF0346002BEAD0BB792848194602F08A
:100D200001FF4FF44053FB600DE0FB68002B04D043
:100D3000FB6803F1FF33FB6005E06FF0030000F098
:100D400083F8034634E01D481F4902F009FF0346BB
:100D5000002BEAD07B791948194602F0E3FE4FF4E4
:100D60004053FB600DE0FB68002B04D0FB6803F1EF
:100D7000FF33FB6005E06FF0040000F065F8034608
:100D800016E00E48104902F0EBFE0346002BEAD0B5
:100D90000A480E4902F0E4FE0346002BE3D0074860
:100DA0004FF0010102F03CFE4FF000037B817B8994
:100DB0001BB2184607F11007BD4680BD005C00401D
:100DC000010000100200001080000010040000105C
:100DD00080B483B000AF786000BF7B68002B0CBF8D
:100DE00000220122D2B203F1FF337B60002AF4D14A
:100DF00007F10C07BD4680BC704700BF80B584B0CA
:100E000000AF4FF00003BB804BF6FF73FB804FF049
:100E100000033B814FF480637B814FF48043BB81AF
:100E2000074B3B6007484FF0010102F0B9FD3B461C
:100E30000448194602F0DCFC07F11007BD4680BDEE
:100E4000A0860100005C004080B584B000AF03467E
:100E5000FB80FB88FB810D484FF0010102F0E0FDB3
:100E60000A484FF0010102F039FE08484FF0000136
:100E700002F034FE054802F07BFCFFF7BFFFFB8960
:100E80001BB2184607F11007BD4680BD005C00404C
:100E900080B489B000AF78604FF00003FB614FF081
:100EA0000003BB614FF000037B614FF000033B6127
:100EB0004FF00003FB604FF00003BB604B4A4B4B0D
:100EC00099684B4B01EA030393607B681B694FEA07
:100ED0000343FB61454B454A91687A685069FA695A
:100EE00040EA020241EA02029A60404A3F4BD96856
:100EF0003F4B01EA0303D3607B689B694FEA0343DE
:100F0000BB613A4B394AD1687A68D069BA6940EA1C
:100F1000020241EA0202DA60344A344B1969344B66
:100F200001EA030313617B681B6A4FEA03437B6199
:100F30002E4B2E4A11697A68506A7A6940EA020299
:100F400041EA02021A61294A284B5969284B01EAF1
:100F5000030353617B689B6A4FEA03433B61234B66
:100F6000224A51697A68D06A3A6940EA020241EA43
:100F700002025A611D4A1D4B99691E4B01EA030387
:100F800093611A4B194A91697A6810687A685268B5
:100F900010437A68926810437A68D26840EA020285
:100FA00041EA02029A617B685B6B4FEA0323FB60B4
:100FB0007B681B6B4FEA0343BB600C4B0B4AD26A46
:100FC00002F07F42DA62094B084AD16AB868FA68CF
:100FD00010437A68926B40EA020241EA0202DA6246
:100FE00007F12407BD4680BC704700BF0068014080
:100FF00000F800F08F88FE0F80B483B000AF034686
:10100000FB71FB79002B06D0084B084A926942F02D
:1010100001029A6105E0054B044A926922F001023F
:101020009A6107F10C07BD4680BC7047006801401B
:1010300080B483B000AF0346FB71FB79002B06D070
:10104000084B084A926942F480329A6105E0054BE8
:10105000044A926922F480329A6107F10C07BD4676
:1010600080BC70470068014080B483B000AF7860F6
:10107000034B7A685A6207F10C07BD4680BC704783
:101080000068014080B489B000AF786039604FF0EB
:101090000003FB614FF00003BB614FF000037B6175
:1010A0004FF000033B614FF00003FB604FF0000383
:1010B000BB603B685B684FEA0343FB617B685B682E
:1010C00003F470427B685A603B681A68FB691A43F4
:1010D0007B685A603B68DB684FEA0343BB617B680F
:1010E0009B6803F470427B689A603B689A68BB69AE
:1010F0001A437B689A607B681B6923F007027B6850
:101100001A613B681A697B681A613B68DB694FEAC0
:1011100003237B613B681B6A4FEA03433B613B68E7
:101120005B6A4FEA0363FB607B689B697B684FF0F7
:1011300000029A613B689A697B691A433B691A43CA
:10114000FB681A437B689A617B685B6923F0FF0246
:101150007B685A613B685A697B685A617B68DB69C6
:1011600023F4E06323F007037A68D3613B689A6A4B
:101170003B68DB6A1A437B68DA617B689B6A7B6841
:101180004FF000029A623B681A6B7B689A623B6878
:101190009B6B4FEA0343BB607B68DB6A03F0E02292
:1011A0007B68DA623B685A6BBB681A437B68DA6219
:1011B0007B681B6B23F4FE6323F00F037A681363D1
:1011C0003B68DA6B7B681A6307F12407BD4680BC75
:1011D000704700BF80B483B000AF78600B46FB70EF
:1011E000FB78002B06D07B681B6843F001027B680C
:1011F0001A6005E07B681B6823F001027B681A60B7
:1012000007F10C07BD4680BC704700BF80B582B0B7
:1012100000AF124B7B60124B3B600BE07B681A689F
:101220003B681A603B6803F104033B607B6803F191
:1012300004037B603A680B4B9A42EFD30A480B4990
:101240004FF000028842B8BF40F8042BFADB00F0F0
:1012500013F807F10807BD4680BD00BF5C4E0008CB
:10126000000000206C0000206C000020980000208E
:1012700080B400AFFEE700BF90B58BB002AF01F0C5
:1012800017FE00F0BFFE00F0F1FE00F059FF4FF630
:10129000FF7000F079FF00F065FF4FF6FF7000F07F
:1012A00073FF8C4B8C4A1A608C4B4FF478421A8037
:1012B00002F094FC0346012B0DD04FF6FF73009310
:1012C0004FF4784301934FF00A004FF00A01844A2B
:1012D000844B01F09DFD844A07F1040307CA03C350
:1012E0001A804FF00003FB614FF00003BB614FF029
:1012F00000037B614FF00003FB612DE04FF0000322
:10130000BB6122E0794CBA6913464FEA83039B180C
:101310004FEA03131946FA6913464FEA83039B18F1
:101320004FEA03131A4607F104007B69C3181B78C0
:10133000786900F101007861084611464FF05002CB
:10134000A047BB6903F10103BB61BB69022BD9DD77
:10135000FB6903F10103FB61FB69022BCEDD634CEA
:1013600007F104027B69D3181B787A6902F1010244
:101370007A614FF050004FF0F0014FF05002A0475B
:1013800008E000BF06E000BF04E000BF02E000BFCD
:1013900000E000BF02F048FC554B1B78002BF0D159
:1013A000534B5B887B82524B9B883B823B8AF42B5E
:1013B00013D83B8A022B10D97B8AEC2B0CD87B8A62
:1013C000032B09D9454B1B88798A3A8A084611466E
:1013D0004FF0030200F090FAEFE03B8AB3F58C7F08
:1013E0000FD83B8AF92B0CD97B8A042B09D97B8A2D
:1013F000232B06D8394B40F21F521A8000F02EF9E9
:10140000DBE03B8AB3F58C7F0FD83B8AF92B0CD9F4
:101410007B8A272B09D97B8A462B06D82F4B47F688
:10142000FF721A8000F01AF9C7E03B8AB3F58C7F8F
:101430000FD83B8AF92B0CD97B8A4A2B09D97B8A96
:10144000692B06D8254B4FF6E0721A8000F006F99A
:10145000B3E03B8AB3F58C7F0FD83B8AF92B0CD9CC
:101460007B8A6D2B09D97B8A8C2B06D81B4B4FF6B8
:10147000FF721A8000F0F2F89FE03B8AB3F59F7F7D
:1014800011D83A8A40F21F139A420CD97B8A042B56
:1014900009D97B8A232B06D8104B4FF478421A8047
:1014A00000F0DCF889E03B8AB3F59F7F22D83A8AC6
:1014B00040F21F139A421DD97B8A272B1AD97B8AA7
:1014C000462B17D8054B4FF01F021A8000F0C6F8C4
:1014D00073E000BF88000020005802D08C0000207C
:1014E000E440000864000020F0400008C115000836
:1014F000900000203B8AB3F59F7F11D83A8A40F2D2
:101500001F139A420CD97B8A4A2B09D97B8A692BF3
:1015100006D82A4B4FF4FC621A8000F09FF84CE08A
:101520003B8AB3F59F7F11D83A8A40F21F139A4243
:101530000CD97B8A6D2B09D97B8A8C2B06D81F4B43
:101540004FF000021A8000F089F836E03B8AB3F5CC
:101550009F7F11D83A8A40F21F139A420CD97B8A96
:10156000902B09D97B8AAF2B06D8144B4FF61F025C
:101570001A8000F073F820E03B8AB3F59F7F3FF6B6
:1015800002AF3A8A40F20D139A427FF6FEAE7B8A92
:10159000B32B7FF6FCAE7B8AE62B3FF6FAAE074B09
:1015A0001B8800934FF000004FF000014FF0F00255
:1015B0004FF0F80300F086F8ECE6EBE68C00002034
:1015C00090B587B002AFF860B9607A60FB70FB68D5
:1015D00098B2BB6899B27B689AB27B689BB24FF0B5
:1015E0000004009400F046F9FB689BB203F103038A
:1015F00098B2BB689BB203F1030399B27B689BB2BC
:10160000A3F105039AB27B689BB2A3F105039BB2D9
:10161000104C2488009400F055F8FB689BB203F14D
:10162000230399B2BB689BB203F123039AB207F17B
:1016300003034FF0000000904FF6FF700190084642
:1016400011461A46044B01F0E3FB07F11407BD46AF
:1016500090BD00BF8C0000206400002080B582B0E7
:1016600002AF4FF0000300934FF0B4004FF48771C6
:101670004FF030024FF0320300F0FCF80E4B1B88A5
:1016800000934FF0B6004FF488714FF02E024FF0E8
:101690002E0300F017F84FF0000300934FF6FF738E
:1016A00001934FF0BE004FF49171044A044B01F0D6
:1016B000AFFBBD4680BD00BF8C000020FC40000891
:1016C0006400002080B590B000AFF880B9807A80C7
:1016D0003B804FF00003FB634FF000037B874FF02C
:1016E00000033B874FF00003FB86B7F848304FEA12
:1016F000D3237B87B7F8483003F01F03FB86B7F886
:10170000483003F4FC639BB24FEA53133B87BA881B
:1017100013464FEA03139B1A4FEA03131A46FB883A
:10172000D3184FEA43031A46184B1B68D318FB63C0
:10173000FFF70CF84FF44033FB604FF002033B61BE
:101740003B8FBB61FB8E7B617B8FFB614FF00F0397
:101750003B62FB6B7B627B88C3F1F003BB623B881F
:10176000FB627B883B6307F10C031846FEF7FEFF24
:10177000FFF7C6F800BF4FF00200FFF7CFF80346AF
:10178000002BF8D007F14007BD4680BD880000203F
:1017900080B590B000AFF880B9807A807B704FF050
:1017A0000003FB634FF000037B874FF000033B8790
:1017B0004FF00003FB86BA8813464FEA03139B1AC7
:1017C0004FEA03131A46FB88D3184FEA43031A461D
:1017D000274B1B68D318FB63B7F848304FEAD32375
:1017E0007B87B7F8483003F01F03FB86B7F8483013
:1017F00003F4FC639BB24FEA53133B87FEF7A6FF4B
:101800004FF44033FB604FF002033B613B8FBB6101
:10181000FB8E7B617B8FFB614FF00F033B62FB6BA9
:101820007B627B78002B08D14FF00003BB624FF046
:101830000103FB627B883B6307E04FF0EF03BB6271
:101840007B88FB624FF001033B6307F10C031846F2
:10185000FEF78CFFFFF754F800BF4FF00200FFF7D0
:101860005DF80346002BF8D007F14007BD4680BD68
:101870008800002080B584B002AFF880B9807A80FB
:101880003B80F988BA883B88388A00900846114620
:101890001A464FF00003FFF77BFFBA887B88D31806
:1018A0009AB2F9883B88388A0090084611461A4651
:1018B0004FF00003FFF76CFFF988BA887B88388AFD
:1018C0000090084611461A464FF00103FFF760FFEB
:1018D000FA883B88D31899B2BA887B88388A0090F6
:1018E000084611461A464FF00103FFF751FF07F172
:1018F0000807BD4680BD00BF80B588B002AFF88044
:10190000B9807A803B807B884FEA4303C3F10303AD
:101910007B614FF000033B617B88FB6083E0FB68E9
:10192000002B2FD03B699BB2FA88D31A99B2FB687F
:101930009BB2BA88D31A9AB2FB689BB24FEA4303B0
:101940009BB238880090084611461A464FF00103B2
:10195000FFF71EFF3B699AB2FB88D31899B2FB6868
:101960009BB2BA88D31A9AB2FB689BB24FEA430380
:101970009BB238880090084611461A464FF0010382
:10198000FFF706FF3B69002B2FD0FB689BB2FA885C
:10199000D31A99B23B699BB2BA88D31A9AB23B69FF
:1019A0009BB24FEA43039BB2388800900846114629
:1019B0001A464FF00103FFF7EBFEFB689AB2FB8873
:1019C000D31899B23B699BB2BA88D31A9AB23B69D1
:1019D0009BB24FEA43039BB23888009008461146F9
:1019E0001A464FF00103FFF7D3FE7B69002B08DA9C
:1019F0003B694FEA83027B69D31803F106037B61DD
:101A00000DE03A69FB68D31A4FEA83027B69D31869
:101A100003F10A037B61FB6803F1FF33FB603B6961
:101A200003F101033B613A69FB689A427FF677AFA5
:101A3000F888B9887A883B8800F004F807F118071D
:101A4000BD4680BD80B487B000AFF880B9807A8091
:101A50003B807B88C3F100037B614FF000033B6157
:101A60007A8813464FEAC3739B1A4FEA430303F184
:101A70000203FB60FA887B69D11ABA883B69D218E5
:101A800013464FEA03139B1A4FEA0313CB184FEA8E
:101A900043031A463D4B1B68D3183A881A80FA88CC
:101AA0007B69D118BA883B69D21813464FEA0313F1
:101AB0009B1A4FEA0313CB184FEA43031A46334BE2
:101AC0001B68D3183A881A80FA887B69D118BA88BB
:101AD0003B69D21A13464FEA03139B1A4FEA0313CA
:101AE000CB184FEA43031A46284B1B68D3183A8891
:101AF0001A80FA887B69D11ABA883B69D21A1346D0
:101B00004FEA03139B1A4FEA0313CB184FEA430320
:101B10001A461E4B1B68D3183A881A80FB68BB60B4
:101B2000BA683B699A4218DC3B6903F101033B61E7
:101B30003B694FEA430303F10103FA68D318FB60E2
:101B40007B69C3F100023B699A4206D1BA687B699E
:101B50009A4202DC4FF00003BB60BA687B699A428C
:101B60000BDD7B6903F101037B617B694FEA430372
:101B700003F10103FA68D318FB607B69002B7FF740
:101B800079AF07F11C07BD4680BC70478800002074
:101B900080B485B000AFF860B9607A60094BFA682C
:101BA0004FEA8211BA684FEA026211437A684FEA3B
:101BB000027241EA0202C3F8882007F11407BD4609
:101BC00080BC70470038024080B483B000AF034649
:101BD000FB71044BFA791A6007F10C07BD4680BC13
:101BE000704700BF7000474280B489B000AF786092
:101BF0004FF00003BB614FF000037B614FF0000327
:101C0000FB614FF002033B614FF00003FB604FF0BC
:101C10000203BB604F4B9B6803F00C03BB61BB69C5
:101C2000042B07D0082B09D0002B47D17B684A4AE8
:101C30001A6047E07B68494A1A6043E0454B5B689D
:101C400003F480034FEA9353FB60424B5B6803F05D
:101C50003F03BB60FB68002B0FD0404ABB68B2FB60
:101C6000F3F23C4B596847F6C07301EA03034FEAAD
:101C7000931303FB02F3FB610EE0374ABB68B2FB30
:101C8000F3F2344B596847F6C07301EA03034FEA95
:101C9000931303FB02F3FB612E4B5B6803F44033A9
:101CA0004FEA134303F101034FEA43033B61FA692F
:101CB0003B69B2FBF3F27B681A6003E07B68264A5B
:101CC0001A6000BF234B9B6803F0F003BB61BB6944
:101CD0004FEA1313BB61224ABB69D3181B78DBB2EE
:101CE0007B617B681A687B6922FA03F27B685A6021
:101CF000184B9B6803F4E053BB61BB694FEA932325
:101D0000BB61174ABB69D3181B78DBB27B617B6868
:101D10005A687B6922FA03F27B689A600D4B9B68D4
:101D200003F46043BB61BB694FEA5333BB610C4AA8
:101D3000BB69D3181B78DBB27B617B685A687B690F
:101D400022FA03F27B68DA6007F12407BD4680BC03
:101D5000704700BF003802400024F40000127A00EF
:101D60002000002080B485B000AF78604FF0000301
:101D7000FB600B4BD3F88C30FB60FB6823F44033E3
:101D8000FB60FA687B6842EA0303FB60044BFA6875
:101D9000C3F88C2007F11407BD4680BC704700BF14
:101DA0000038024080B483B000AF78600B46FB700F
:101DB000FB78002B07D00B4B0A4A116B7A6841EA7B
:101DC00002021A6308E0074B064A116B7A686FEA51
:101DD000020201EA02021A6307F10C07BD4680BC49
:101DE000704700BF0038024080B483B000AF786015
:101DF0000B46FB70FB78002B07D00B4B0A4A916B0C
:101E00007A6841EA02029A6308E0074B064A916B3E
:101E10007A686FEA020201EA02029A6307F10C078C
:101E2000BD4680BC704700BF0038024080B483B01C
:101E300000AF78600B46FB70FB78002B07D00B4B94
:101E40000A4A116C7A6841EA02021A6408E0074BF8
:101E5000064A116C7A686FEA020201EA02021A6409
:101E600007F10C07BD4680BC704700BF0038024038
:101E700080B483B000AF78600B46FB70FB78002B1A
:101E800007D00B4B0A4A516C7A6841EA02025A6445
:101E900008E0074B064A516C7A686FEA020201EAD1
:101EA00002025A6407F10C07BD4680BC704700BFB0
:101EB0000038024080B483B000AF78600B46FB70FE
:101EC000FB78002B07D00B4B0A4A11697A6841EA6C
:101ED00002021A6108E0074B064A11697A686FEA44
:101EE000020201EA02021A6107F10C07BD4680BC3A
:101EF000704700BF0038024080B483B000AF786004
:101F00000B46FB70FB78002B07D00B4B0A4A116A7B
:101F10007A6841EA02021A6208E0074B064A116A2F
:101F20007A686FEA020201EA02021A6207F10C07FC
:101F3000BD4680BC704700BF0038024080B483B00B
:101F400000AF78600B46FB70FB78002B07D00B4B83
:101F50000A4A516A7A6841EA02025A6208E0074B6B
:101F6000064A516A7A686FEA020201EA02025A627C
:101F700007F10C07BD4680BC704700BF0038024027
:101F800080B487B000AF0346FB714FF00003FB60E5
:101F90004FF000037B614FF00003FB74FB794FEAC5
:101FA0005313DBB2FB60FB68012B03D1144B1B689E
:101FB0007B6109E0FB68022B03D1114B1B6F7B6136
:101FC00002E00F4B5B6F7B61FB7903F01F03FB604B
:101FD000FB687A6922FA03F303F00103DBB2002BFA
:101FE00003D04FF00103FB7402E04FF00003FB74D9
:101FF000FB7C184607F11C07BD4680BC704700BF3C
:102000000038024080B582B000AF4FF00003FB7192
:1020100000F082F94FF0000001F012F800F050FAE1
:102020000E4B4FF000021A70FEF7C0F800F0B8F93E
:102030004FF00103FB710A4B4FF000021A80094B6D
:102040004FF000021A80084B4FF000021A60FB7933
:10205000184607F10807BD4680BD00BF8E0000206E
:1020600074000020760000207800002080B590B039
:1020700000AF4FF01E033B6040F20D137B604FF04A
:102080000403BB6040F24313FB604FF002033B616B
:102090004FF0FF037B614FF00003BB614FF0000383
:1020A000FB614FF000033B624FF000037B624FF493
:1020B0008063BB624FF00503FB6240F2E3137B6376
:1020C0004FF4F073BB634FF4A073FB634FF05043C6
:1020D0003B633B4617481946FEF7D4FF164B3B635C
:1020E0004FF4C063BB624FF00703FB623B461348EB
:1020F0001946FEF7C7FF4FF00100FEF7B5FF0D4888
:102100004FF00101FFF766F80C484FF00101FFF7AF
:1021100061F84FF00100FEF7A7FF4FF00100FEF756
:1021200087FF4FF00100FEF767FF07F14007BD464C
:1021300080BD00BF84680140005802D0046901409E
:1021400080B400AF054B4FF050421A60044B4FF083
:1021500000021A60BD4680BC704700BF30000020FE
:102160007000002080B400AF044B054A1A60054B94
:102170004FF001021A60BD4680BC7047300000205D
:10218000005802D07000002080B485B000AF034634
:10219000FB804FF00003FB604FF00003FB600BE09F
:1021A000FB684FEA4302094B1B68D318FA881A8070
:1021B000FB6803F10103FB60FA68054B9A42EFD913
:1021C00007F11407BD4680BC704700BF30000020F7
:1021D000FF57020080B483B000AF02460B46FA807E
:1021E000BB80104BFA881A800F4BBA881A800E4BAE
:1021F0001B881A4613464FEA03139B1A4FEA031330
:102200001A46084B1B88D3184FEA43031A46074B5C
:102210001B68D218064B1A6007F10C07BD4680BC3C
:10222000704700BF740000207600002030000020BE
:102230007800002080B483B000AF0346FB80314BB0
:102240001B68FA881A80304B1B78002B20D12F4B4B
:102250001B8803F101039AB22C4B1A802B4B1B886D
:10226000EF2B35D9294B4FF000021A80284B1B88E1
:1022700003F101039AB2264B1A80254B1A8840F2CB
:102280003F139A4224D9224B4FF000021A801FE0DC
:102290001F4B1B8803F101039AB21D4B1A801C4B84
:1022A0001A8840F23F139A4212D9194B4FF000029C
:1022B0001A80164B1B8803F101039AB2134B1A8044
:1022C000124B1B88EF2B03D9104B4FF000021A80E2
:1022D0000F4B1B881A4613464FEA03139B1A4FEA0B
:1022E00003131A46094B1B88D3184FEA43031A46B7
:1022F000084B1B68D218034B1A6007F10C07BD4648
:1023000080BC7047780000208E0000207400002000
:10231000760000203000002080B582B000AF4FF082
:1023200008004FF00101FFF73DFD4FF400533B6003
:102330004FF002037B714FF001033B714FF000033C
:10234000BB714FF00003FB713B461348194600F088
:10235000ADFB4FF004004FF00101FFF723FD4FF0FC
:1023600004033B604FF002037B714FF001033B71AC
:102370004FF00003BB714FF00003FB713B46074871
:10238000194600F093FB4FF0010000F069F807F1E7
:102390000807BD4680BD00BF000C02400008024097
:1023A00080B590B000AF4FF080604FF00101FFF7B3
:1023B0005FFD4FF400004FF00101FFF7F3FC00F068
:1023C0006FFA4FF000037B604FF00003BB604FF0EB
:1023D0000003FB604FF000033B614FF000037B63A1
:1023E0004FF00003BB634FF00003FB634FF0C000EE
:1023F0004FF007014FF00402FFF7CAFB4FF4003023
:10240000FFF7B0FC4FF00100FFF7DEFB00BF4FF01D
:102410003D00FFF7B5FD0346002BF8D04FF0090350
:102420007B614FF00103BB614FF01D03FB614FF077
:1024300003033B6240F20D137B6240F24313BB6225
:1024400040F21713FB6240F247133B6307F10403AA
:102450001846FEF71DFD07F14007BD4680BD00BFD1
:1024600080B483B000AF0346FB71FB79002B04D12D
:10247000064B4FF004025A8303E0044B4FF0040272
:102480001A8307F10C07BD4680BC70470008024064
:1024900080B483B000AF0346FB71FB79002B04D1FD
:1024A000064B4FF400525A8303E0044B4FF40052A2
:1024B0001A8307F10C07BD4680BC7047000C024030
:1024C00080B500AF4FF0CA0000F0AEF94FF0C30086
:1024D00000F0C8F94FF0080000F0C4F94FF05000C8
:1024E00000F0C0F94FF0CF0000F09EF94FF000006F
:1024F00000F0B8F94FF0C10000F0B4F94FF030002F
:1025000000F0B0F94FF0ED0000F08EF94FF06400EC
:1025100000F0A8F94FF0030000F0A4F94FF012000A
:1025200000F0A0F94FF0810000F09CF94FF0E800B6
:1025300000F07AF94FF0850000F094F94FF00000B8
:1025400000F090F94FF0780000F08CF94FF0CB00DC
:1025500000F06AF94FF0390000F084F94FF02C00D8
:1025600000F080F94FF0000000F07CF94FF03400EB
:1025700000F078F94FF0020000F074F94FF0F70026
:1025800000F052F94FF0200000F06CF94FF0EA0033
:1025900000F04AF94FF0000000F064F94FF000003D
:1025A00000F060F94FF0B10000F03EF94FF000008C
:1025B00000F058F94FF01B0000F054F94FF0B6004E
:1025C00000F032F94FF00A0000F04CF94FF0A20091
:1025D00000F048F94FF0C00000F026F94FF010006D
:1025E00000F040F94FF0C10000F01EF94FF010006C
:1025F00000F038F94FF0C50000F016F94FF0450033
:1026000000F030F94FF0150000F02CF94FF0C70042
:1026100000F00AF94FF0900000F024F94FF0360076
:1026200000F002F94FF0C80000F01CF94FF0F20082
:1026300000F0FAF84FF0000000F014F94FF0B0008D
:1026400000F0F2F84FF0C20000F00CF94FF0B600C5
:1026500000F0EAF84FF00A0000F004F94FF0A7008C
:1026600000F000F94FF0270000F0FCF84FF00400F4
:1026700000F0F8F84FF02A0000F0D6F84FF0000014
:1026800000F0F0F84FF0000000F0ECF84FF0000020
:1026900000F0E8F84FF0EF0000F0E4F84FF02B0006
:1026A00000F0C2F84FF0000000F0DCF84FF000003E
:1026B00000F0D8F84FF0010000F0D4F84FF03F00E0
:1026C00000F0D0F84FF0F60000F0AEF84FF0010047
:1026D00000F0C8F84FF0000000F0C4F84FF006001A
:1026E00000F0C0F84FF02C0000F09EF84FF0C8004A
:1026F00000F0C6F94FF0260000F096F84FF0010008
:1027000000F0B0F84FF0E00000F08EF84FF00F004E
:1027100000F0A8F84FF0290000F0A4F84FF02400D2
:1027200000F0A0F84FF00C0000F09CF84FF00E0005
:1027300000F098F84FF0090000F094F84FF04E00C8
:1027400000F090F84FF0780000F08CF84FF03C006B
:1027500000F088F84FF0090000F084F84FF0130003
:1027600000F080F84FF0050000F07CF84FF0170003
:1027700000F078F84FF0110000F074F84FF000000E
:1027800000F070F84FF0E10000F04EF84FF000005C
:1027900000F068F84FF0160000F064F84FF01B00EE
:1027A00000F060F84FF0040000F05CF84FF011000A
:1027B00000F058F84FF0070000F054F84FF03100E7
:1027C00000F050F84FF0330000F04CF84FF04200AA
:1027D00000F048F84FF0050000F044F84FF00C000E
:1027E00000F040F84FF00A0000F03CF84FF02800ED
:1027F00000F038F84FF02F0000F034F84FF00F00E1
:1028000000F030F84FF0110000F00EF84FF0C80063
:1028100000F036F94FF0290000F006F84FF02C00D8
:1028200000F002F880BD00BF80B582B000AF034663
:10283000FB714FF00000FFF72BFE4FF00000FFF799
:102840000FFEFB79184600F0F9FC4FF00A0000F08B
:1028500017F94FF00100FFF703FE07F10807BD4627
:1028600080BD00BF80B582B000AF0346FB714FF062
:102870000100FFF70DFE4FF00000FFF7F1FDFB79BF
:10288000184600F0DBFC4FF00A0000F0F9F84FF0BA
:102890000100FFF7E5FD07F10807BD4680BD00BF59
:1028A00080B582B000AF4FF06F004FF00101FFF72D
:1028B00079FA6D484FF003014FF00E0200F09AF9DB
:1028C00069484FF004014FF00E0200F093F966489A
:1028D0004FF006014FF00E0200F08CF962484FF005
:1028E0000B014FF00E0200F085F95F484FF00C012C
:1028F0004FF00E0200F07EF941F658033B604FF0B6
:1029000002037B714FF002033B714FF00003BB7178
:102910004FF00003FB713B465348194600F0C6F8E0
:1029200052484FF000014FF0090200F063F94F48A0
:102930004FF001014FF0090200F05CF94B484FF0F5
:1029400008014FF00E0200F055F948484FF0090118
:102950004FF00E0200F04EF944484FF00A014FF0DC
:102960000E0200F047F941484FF00B014FF00E0204
:1029700000F040F940F603733B603B463B48194684
:1029800000F094F83A484FF006014FF00E0200F0C4
:1029900031F937484FF007014FF00E0200F02AF9E5
:1029A00033484FF00A014FF00E0200F023F94FF4C4
:1029B00098633B603B462E48194600F077F82D4857
:1029C0004FF003014FF00E0200F014F929484FF0C8
:1029D00006014FF00E0200F00DF94FF048033B6086
:1029E0003B462448194600F061F823484FF00A019D
:1029F0004FF00E0200F0FEF84FF480633B603B4660
:102A00001D48194600F052F81C484FF006014FF0DF
:102A10000E0200F0EFF819484FF007014FF00E02D8
:102A200000F0E8F815484FF00A014FF0090200F0F5
:102A3000E1F812484FF00B014FF00E0200F0DAF807
:102A40000E484FF00C014FF0090200F0D3F84FF49C
:102A5000E6533B603B460948194600F027F807F16A
:102A60000807BD4680BD00BF0000024000040240D0
:102A700000080240000C024000140240001802400E
:102A800080B485B000AF78604FF00003FB607B68D6
:102A9000FB6003E0FB6803F1FF33FB60FB68002B86
:102AA000F8D107F11407BD4680BC704780B487B0E9
:102AB00000AF786039604FF000037B614FF0000396
:102AC0003B614FF00003FB604FF000037B6187E048
:102AD0007B694FF0010202FA03F33B613B681A681D
:102AE0003B6902EA0303FB60FA683B699A4273D1CF
:102AF0007B681A687B694FEA43034FF0030101FAD0
:102B000003F36FEA03031A407B681A607B681A6854
:102B10003B681B7919467B694FEA430301FA03F3CB
:102B20001A437B681A603B681B79012B03D03B6812
:102B30001B79022B34D17B689A687B694FEA430387
:102B40004FF0030101FA03F36FEA03031A407B68B5
:102B50009A607B689A683B685B7919467B694FEAA3
:102B6000430301FA03F31A437B689A607B685A684F
:102B70007B699BB24FF0010101FA03F36FEA030393
:102B80001A407B685A607B685A683B689B79194693
:102B90007B699BB201FA03F39BB21A437B685A60CC
:102BA0007B68DA687B699BB24FEA43034FF003010D
:102BB00001FA03F36FEA03031A407B68DA607B686B
:102BC000DA683B68DB7919467B694FEA430301FA0F
:102BD00003F31A437B68DA607B6903F101037B61CD
:102BE0007B690F2B7FF674AF07F11C07BD4680BCD5
:102BF000704700BF80B485B000AF786013460A46C6
:102C00007A807B704FF00003FB604FF00003BB60E5
:102C10007A787B8803F007034FEA830302FA03F311
:102C2000FB607B884FEAD3039BB21A467B884FEA4E
:102C3000D3039BB219467B6801F1080153F82110B8
:102C40007B8803F007034FEA83034FF00F0000FA7D
:102C500003F36FEA030319407B6802F1080243F8AB
:102C600022107B884FEAD3039BB21A467B6802F19D
:102C7000080253F82220FB6842EA0303BB607B880A
:102C80004FEAD3039BB21A467B6802F10802B96887
:102C900043F8221007F11407BD4680BC704700BFFF
:102CA00080B588B000AF7B600346FB810B46BB81DB
:102CB0001346FB72FB7AA3F12003FB727B681A6850
:102CC000FB7A7968C98801FB03F34FEA4303D31801
:102CD0007B614E4B1B78002B48D14FF080037B83E8
:102CE0007B689B88082B02D94FF400437B834FF00D
:102CF0000003BB8334E07B8B3B83BA8BBB89D31847
:102D00009BB2FA8910461946FFF764FA4FF00003A8
:102D1000FB831CE0BB8B4FEA43037A69D3181A8804
:102D20003B8B02EA03039BB2002B04D1BB8D1846F8
:102D3000FFF780FA03E03B8D1846FFF77BFA3B8BE9
:102D40004FEA53033B83FB8B03F10103FB837B6857
:102D50009B88FA8B9A42DDD3BB8B03F10103BB83C3
:102D60007B68DB88BA8B9A42C5D34BE04FF0800377
:102D70007B837B689B88082B02D94FF400437B83BD
:102D80004FF00003BB8338E07B8B3B837B68DA88A2
:102D9000FB89D3189AB2BB8BD31A9AB2BB8910465F
:102DA0001946FFF717FA4FF00003FB831CE0BB8BBB
:102DB0004FEA43037A69D3181A883B8B02EA03036C
:102DC0009BB2002B04D1BB8D1846FFF733FA03E00A
:102DD0003B8D1846FFF72EFA3B8B4FEA53033B839C
:102DE000FB8B03F10103FB837B689B88FA8B9A4280
:102DF000DDD3BB8B03F10103BB837B68DB88BA8B1C
:102E00009A42C1D307F12007BD4680BD8E00002045
:102E100080B588B002AFBA607B600346FB810B4689
:102E2000BB81224B1B78002B1ED1FB89FB8216E055
:102E3000BB681B78F98ABA89388C0090B88C0190ED
:102E4000084611461A467B68FFF72AFF7B689A8876
:102E5000FB8AD318FB82BB6803F10103BB60BB682C
:102E60001B78002BE4D11DE0BB89FB8216E0BB6818
:102E70001B78F989FA8A388C0090B88C0190084642
:102E800011461A467B68FFF70BFF7B689A88FB8A1E
:102E9000D318FB82BB6803F10103BB60BB681B78DE
:102EA000002BE4D107F11807BD4680BD8E0000203D
:102EB00080B500AF124B124A126842F001021A604C
:102EC0000F4B4FF000029A600D4A0D4B1B6823F028
:102ED000847323F480331360094B0A4A5A60084B09
:102EE000074A126822F480221A60054B4FF0000254
:102EF000DA6000F00BF8044B4FF000629A6080BD7E
:102F0000003802401030002400ED00E080B483B0AF
:102F100000AF4FF000037B604FF000033B60444B79
:102F2000434A126842F480321A60414B1B6803F432
:102F300000333B607B6803F101037B603B68002B3F
:102F400003D17B68B3F5A04FEFD1394B1B6803F475
:102F50000033002B03D04FF001033B6002E04FF041
:102F600000033B603B68012B5CD1314B304A126C53
:102F700042F080521A642F4B2E4A126842F44042AB
:102F80001A602B4B2A4A92689A60294B284A926809
:102F900042F400429A60264B254A926842F4A052BD
:102FA0009A60234B244A5A60214B214A126842F00E
:102FB00080721A6000BF1E4B1B6803F00073002B69
:102FC000F9D01C4B1B4A126842F480321A6000BFD1
:102FD000184B5B6803F48033002BF9D0154B154A6E
:102FE000126842F400321A6000BF124B5B6803F4AF
:102FF0000033002BF9D0114B40F205721A600C4BD4
:103000000B4A926822F003029A60094B084A9268C0
:1030100042F002029A6000BF054B9B6803F00C036C
:10302000082BF9D107F10C07BD4680BC704700BFE3
:103030000038024000700040085A4007003C02403F
:1030400080B58AB000AF0346FB714FF0000387F8EC
:103050002730764B1B78002B0BD0754B1B78FA79F9
:103060009A4203D14FF0010387F8273097F82730B1
:10307000D7E04FF480104FF00101FEF7F9FE6D4BE1
:103080009B6818464FF00101FEF78CFE694B9B6967
:1030900018464FF00101FEF785FE664B9B6A184605
:1030A0004FF00101FEF77EFE624B1A68614B1B7BFD
:1030B000104619464FF00502FFF79CFD5D4B1A695B
:1030C0005C4B1B7F104619464FF00502FFF792FD3F
:1030D000584B1A6A574B93F82C30104619464FF04C
:1030E0000502FFF787FD4FF0020387F820304FF00D
:1030F000020387F821304FF0000387F822304FF0A9
:10310000000387F823304B4B9B88FB61494B1A68BF
:1031100007F11C0310461946FFF7C8FC454B9B8A74
:10312000FB61444B1A6907F11C0310461946FFF76F
:10313000BDFC404B9B8CFB613E4B1A6A07F11C03A4
:1031400010461946FFF7B2FC3B4800F0EFF94FF08C
:1031500000033B814FF482737B814FF00003BB81FE
:10316000FB79002B02D0FB79042B06D14FF0000332
:10317000FB814FF000033B821FE0FB79012B02D063
:10318000FB79052B06D14FF00003FB814FF00103C3
:103190003B8212E0FB79022B02D0FB79062B06D191
:1031A0004FF00203FB814FF000033B8205E04FF03C
:1031B0000203FB814FF001033B824FF400737B82DB
:1031C0004FF01803BB82FB79002B08D0FB79012B51
:1031D00005D0FB79022B02D0FB79032B03D14FF0F2
:1031E0000003FB8202E04FF08003FB824FF00703F5
:1031F0003B8307F108031048194600F011FA0E4806
:103200004FF0010100F058FA084B4FF001021A701C
:10321000074BFA791A704FF0010387F8273097F8B7
:103220002730184607F12807BD4680BD7C000020E6
:103230007D000020340000200050014080B584B0A3
:1032400000AF0346FB714FF00003FB7300BF114852
:103250004FF0020100F06CFA0346002BF7D0FB7927
:103260009BB20C48194600F055FA00BF09484FF0D0
:10327000010100F05DFA0346002BF7D0054800F08D
:103280003BFA0346FB73FB7B184607F11007BD466C
:1032900080BD00BF0050014080B487B000AF7860AF
:1032A0004FF000037B614FF000033B614FF00003E0
:1032B000FB604FF00003BB607B685A687B689B68CB
:1032C0001A437B68DB681A437B681B691A437B6877
:1032D0005B691A437B689B691A437B68DB691A4305
:1032E0007B681B6A1A437B685B6A42EA03037B6163
:1032F0007B681B68002B06D14E4B7A68126879698F
:1033000043F8221012E07B68DA697B681B6A1A4373
:103310007B685B6A42EA0303FB60464BFA681A600B
:10332000444B7A681268796943F822107B681B68FD
:10333000002B3FD17B689B6A1B6803F1FF327B68DF
:103340009B6A5B6803F1FF334FEA03131A437B6800
:103350009B6A9B6803F1FF334FEA03231A437B68A0
:103360009B6ADB6803F1FF334FEA03331A437B6840
:103370009B6A1B6903F1FF334FEA03431A437B68DF
:103380009B6A5B6903F1FF334FEA03531A437B687F
:103390009B6A9B6903F1FF334FEA036342EA03032D
:1033A0003B61244B7A68126802F10202396943F8E2
:1033B00022103AE07B689B6A1B6803F1FF327B684E
:1033C0009B6A5B6803F1FF334FEA03131A437B6880
:1033D0009B6A9B6803F1FF334FEA03231A437B6820
:1033E0009B6A1B6903F1FF334FEA034342EA03037D
:1033F0003B617B689B6ADB6803F1FF334FEA033272
:103400007B689B6A5B6903F1FF334FEA035342EA2F
:103410000303BB60074BBA689A60064B7A68126870
:1034200002F10202396943F8221007F11C07BD4678
:1034300080BC7047400100A080B485B000AF7860C8
:103440004FF00003FB607B681A687B685B681A4377
:103450007B689B6803F1FF334FEA43131A437B6891
:10346000DB684FEA432342EA0303FB60034BFA683D
:103470001A6107F11407BD4680BC7047400100A0E7
:1034800080B483B000AF7860064B064A51697A6811
:103490004FEA420241EA02025A6107F10C07BD46B7
:1034A00080BC7047400100A080B485B000AF786058
:1034B00039604FF00003FB734FF00003BB607B6883
:1034C000102B03D1154B5B68BB6012E07B68B3F532
:1034D000807F03D1124B5B68BB600AE07B68B3F569
:1034E000805F03D10F4B5B68BB6002E00E4B9B69B2
:1034F000BB60BA683B681A403B689A4203D04FF001
:103500000003FB7302E04FF00103FB73FB7B1846E3
:1035100007F11407BD4680BC704700BF600000A0E3
:10352000800000A0A00000A0400100A080B582B0F3
:1035300000AF78607A68344B9A420CD14FF48050D7
:103540004FF00101FEF7FAFC4FF480504FF00001FC
:10355000FEF7F4FC53E07A682C4B9A420CD14FF4FE
:1035600080404FF00101FEF7C7FC4FF480404FF060
:103570000001FEF7C1FC42E07A68254B9A420CD16B
:103580004FF400404FF00101FEF7B6FC4FF400404D
:103590004FF00001FEF7B0FC31E07A681D4B9A4213
:1035A0000CD14FF400504FF00101FEF7C7FC4FF46F
:1035B00000504FF00001FEF7C1FC20E07A68164B86
:1035C0009A420CD14FF480104FF00101FEF7B6FC87
:1035D0004FF480104FF00001FEF7B0FC0FE07A6866
:1035E0000E4B9A420BD14FF400104FF00101FEF741
:1035F000A5FC4FF400104FF00001FEF79FFC07F10F
:103600000807BD4680BD00BF0030014000380040C3
:10361000003C004000340140005001400054014093
:1036200080B485B000AF786039604FF00003FB8153
:103630007B681B88FB81FB8903F44153FB813B685A
:103640001A883B685B8842EA03039AB23B689B880E
:1036500042EA03039AB23B68DB8842EA03039AB268
:103660003B681B8942EA03039AB23B685B8942EAE2
:1036700003039AB23B689B8942EA03039AB23B6810
:10368000DB8942EA03039AB2FB8942EA0303FB8126
:103690007B68FA891A807B689B8B9BB223F400635A
:1036A0009AB27B689A833B681A8A7B681A8207F110
:1036B0001407BD4680BC704780B483B000AF78600B
:1036C0000B46FB70FB78002B08D07B681B889BB2F5
:1036D00043F040039AB27B681A8007E07B681B883E
:1036E0009BB223F040039AB27B681A8007F10C0763
:1036F000BD4680BC704700BF80B483B000AF786027
:103700007B689B899BB2184607F10C07BD4680BCBD
:10371000704700BF80B483B000AF78600B467B80F9
:103720007B687A889A8107F10C07BD4680BC704798
:1037300080B485B000AF78600B467B804FF000030B
:10374000FB737B681B899AB27B8802EA03039BB2F6
:10375000002B03D04FF00103FB7302E04FF0000396
:10376000FB73FB7B184607F11407BD4680BC70470E
:1037700080B582B000AF78607A681A4B9A420CD15B
:103780004FF400104FF00101FEF7B6FB4FF40010AC
:103790004FF00001FEF7B0FB20E07A68124B9A422E
:1037A0000CD14FF480004FF00101FEF7A5FB4FF460
:1037B00080004FF00001FEF79FFB0FE07A680B4B93
:1037C0009A420BD14FF400004FF00101FEF794FB39
:1037D0004FF400004FF00001FEF78EFB07F10807E1
:1037E000BD4680BD0054004000580040005C0040D1
:1037F00080B58AB000AF786039604FF00003FB8479
:103800004FF000037B844FF00403BB84604BFB61EB
:103810007B689B88FB84FB8C23F03F03FB8407F1D0
:103820000C031846FEF7E0F97B69FB61FA69594B16
:10383000A3FB02134FEA93437B84FA8C7B8C42EA0E
:103840000303FB847B68FA8C9A807B681B889BB29D
:1038500023F001039AB27B681A804FF00003FB84C7
:103860003B681A684C4B9A4219D83B681B684FEA70
:103870004303FA69B2FBF3F3BB84BB8C032B02D87E
:103880004FF00403BB84FA8CBB8C42EA0303FB8435
:103890007B8C03F101039AB27B681A8449E03B6890
:1038A000DA884BF6FF739A420AD13B681A681346CE
:1038B0004FEA43039B18FA69B2FBF3F3BB8410E0B1
:1038C0003B681A6813464FEA83039B184FEA83024A
:1038D0009B18FA69B2FBF3F3BB84BB8C43F48043BF
:1038E000BB84BB8C4FEA03534FEA1353002B03D125
:1038F000BB8C43F00103BB84BA8CFB8C42EA03030C
:103900009BB26FEA43436FEA5343FB847B8C4FF4D3
:10391000967202FB03F3214A82FB03124FEAA212C2
:103920004FEAE373D31A9BB203F101039AB27B68A7
:103930001A847B68FA8C9A837B681B889BB243F05D
:1039400001039AB27B681A807B681B88FB84FB8C1E
:1039500023F4806323F00A03FB843B689A883B6866
:103960005B8942EA03039AB2FB8C42EA0303FB84BD
:103970007B68FA8C1A803B689A893B681B8942EA0B
:1039800003039AB27B681A8107F12807BD4680BD00
:1039900000127A0083DE1B43A0860100D34D621023
:1039A00080B483B000AF78600B46FB70FB78002BCF
:1039B00008D07B681B889BB243F001039AB27B68F6
:1039C0001A8007E07B681B889BB223F001039AB240
:1039D0007B681A8007F10C07BD4680BC704700BFAA
:1039E00080B483B000AF78600B46FB70FB78002B8F
:1039F00008D07B681B889BB243F480739AB27B68C3
:103A00001A8007E07B681B889BB223F480739AB20C
:103A10007B681A8007F10C07BD4680BC704700BF69
:103A200080B483B000AF78600B46FB70FB78002B4E
:103A300008D07B681B889BB243F400739AB27B6802
:103A40001A8007E07B681B889BB223F400739AB24C
:103A50007B681A8007F10C07BD4680BC704700BF29
:103A600080B483B000AF786013460A46FA70BB702A
:103A7000BB78002B04D0FB7843F00103FB7003E01C
:103A8000FB7823F00103FB70FB789AB27B681A8203
:103A900007F10C07BD4680BC704700BF80B483B0FF
:103AA00000AF78600B46FB70FB78002B08D07B687A
:103AB0001B889BB243F480639AB27B681A8007E04C
:103AC0007B681B889BB223F480639AB27B681A8060
:103AD00007F10C07BD4680BC704700BF80B483B0BF
:103AE00000AF78600B46FB70FB78002B0AD07B6838
:103AF0001B889BB26FEA43436FEA53439AB27B68D9
:103B00001A8009E07B681B889BB24FEA43434FEA67
:103B100053439AB27B681A8007F10C07BD4680BCFC
:103B2000704700BF80B483B000AF78600B46FB7075
:103B3000FB789AB27B681A8207F10C07BD4680BCFD
:103B4000704700BF80B483B000AF78607B681B8A89
:103B50009BB2DBB2184607F10C07BD4680BC70472C
:103B600080B487B000AF786039604FF00003FB7518
:103B70004FF000033B614FF00003FB607B68FB608C
:103B80003B684FEA13733B613B6823F07F433B6024
:103B90003B69002B04D0FB6803F11403FB6007E0D2
:103BA0003B684FEA13433B60FB6803F11803FB607B
:103BB000FB681A683B6802EA0303002B03D04FF04E
:103BC0000103FB7502E04FF00003FB75FB7D184617
:103BD00007F11C07BD4680BC704700BF80B582B0AE
:103BE00000AF4FF00003FB80FCF7B6FE00F05EF97B
:103BF0000346FB80FA8840F611039A4202D04FF048
:103C000000030BE000F08CF84FF001004FF00101D1
:103C100000F09EF800F0D8F84FF00103184607F1C5
:103C20000807BD4680BD00BF80B586B000AF4FF02D
:103C300082004FF04001FCF7FBFE0346FB82B7F920
:103C40001630002B02DA4FF000035EE0FB8A03F02F
:103C50008003002B04D12F4B4FF001021A7003E0B8
:103C60002C4B4FF000021A702A4B1B78002B30D1DE
:103C700000F090F903463B6100F0C8F90346FB6091
:103C8000254B1B683A699A4204D9234B1B683A6951
:103C9000D31A03E0204B1A683B69D31ABB601F4B51
:103CA0001B68FA689A4204D91C4B1B68FA68D31A3D
:103CB00003E01A4B1A68FB68D31A7B60BA687B680A
:103CC000D318052B05D9144B3A691A60134BFA68BF
:103CD0001A60114B1B689AB20E4B5A800F4B1B682F
:103CE0009AB20C4B9A804FF082004FF04B014FF08C
:103CF0000102FCF7A9FF4FF082004FF04B014FF09B
:103D00000002FCF7A1FF4FF00103184607F1180766
:103D1000BD4680BD9000002080000020840000206F
:103D200080B500AF4FF082004FF003014FF0020268
:103D3000FCF78AFF0548FDF74BF84FF082004FF083
:103D400003014FF00002FCF77FFF80BD400D030030
:103D500080B584B000AF02460B46FA71BB714FF0DC
:103D60000003FB734FF082004FF00401FCF760FE8C
:103D70000346BB81B7F90C30002B02DA4FF0010388
:103D80001DE0BB89FB73BB79002B09D0FB796FEA7F
:103D90000303DAB2FB7B02EA0303DBB2FB7304E04A
:103DA000FA7BFB7942EA0303FB73FB7B4FF0820053
:103DB0004FF004011A46FCF747FF4FF00003184686
:103DC00007F11007BD4680BD80B500AF4FF002007F
:103DD0004FF00101FFF7BCFF4FF082004FF02001D0
:103DE0004FF04902FCF730FF2E48FCF7F1FF4FF08F
:103DF00082004FF021014FF00102FCF725FF4FF048
:103E00001E004FF0000100F089F84FF082004FF0E3
:103E100041014FF09A02FCF717FF4FF082004FF07C
:103E20004A014FF00102FCF70FFF4FF082004FF004
:103E30004B014FF00102FCF707FF4FF082004FF0FB
:103E40004B014FF00002FCF7FFFE4FF082004FF0F5
:103E500056014FF00102FCF7F7FE4FF082004FF0E1
:103E600058014FF00102FCF7EFFE4FF082004FF0D7
:103E700040014FF00302FCF7E7FE4FF082004FF0E5
:103E80000B014FF0FF02FCF7DFFE074B4FF0010282
:103E90001A70054B4FF000025A80034B4FF000029E
:103EA0009A8080BD400D03009000002080B582B054
:103EB00000AF4FF00003FB804FF082004FF0000195
:103EC000FCF7B6FD0346BB804FF082004FF00101C6
:103ED000FCF7AEFD03467B80B7F90430002B02DA15
:103EE0004FF0000314E0B7F90230002B02DA4FF074
:103EF00000030DE0BB88FB80FB884FEA0323FB80B7
:103F0000FB881A467B8842EA03039BB2FB80FB884E
:103F1000184607F10807BD4680BD00BF80B584B0D4
:103F200000AF02460B46FA71BB714FF00003FB7302
:103F30004FF082004FF01701FCF77AFD0346BB817A
:103F4000B7F90C30002B02DA4FF001031DE0BB89FA
:103F5000FB73BB79002B05D0FA7BFB7942EA0303A4
:103F6000FB7308E0FB796FEA0303DAB2FB7B02EA3A
:103F70000303DBB2FB73FB7B4FF082004FF01701B2
:103F80001A46FCF761FE4FF00003184607F11007D0
:103F9000BD4680BD80B582B000AF4FF04D0000F04F
:103FA00065F803467B607A6840F6B8339A4206DCCF
:103FB0007B68C3F5706303F11E037B6005E07B68DB
:103FC000C3F56C6303F118037B607B680E4A82FBC8
:103FD0000312D2184FEAE2024FEAE373D31A3B60AE
:103FE0003B68002B03DC4FF000033B6005E03B68BF
:103FF000EF2B02DD4FF0EF033B603B689BB21846AE
:1040000007F10807BD4680BD8988888880B582B0E1
:1040100000AF4FF04F0000F029F803463B603B68CB
:10402000A3F5B4733B603B680F4A82FB03124FEA6F
:1040300062024FEAE373D31A7B607B68002B03DCD8
:104040004FF000037B6007E07A6840F23F139A422A
:1040500002DD40F23F137B607B689BB2184607F19C
:104060000807BD4680BD00BFE9A28B2E80B584B095
:1040700000AF78604FF00003FB817B68DBB24FF04C
:1040800082001946FCF7D4FC0346BB817B68DBB297
:1040900003F10103DBB24FF082001946FCF7C8FCC4
:1040A00003467B81B7F90C30002B02DA4FF0000396
:1040B00012E0B7F90A30002B02DA4FF000030BE0F0
:1040C000B7F90C304FEA03239BB21A467B8942EAC8
:1040D00003039BB2FB81FB89184607F11007BD461D
:1040E00080BD00BF546F756368204572726F7200A7
:1040F000373839343536313233300000434C5200D2
:1041000000000000000000000000000000000000AF
:10411000000000000000000000000000000000009F
:1041200000000000000C000C000C000C000C000C47
:10413000000C000C000C000C000C0000000C000C2B
:104140000000000000000000001B001B001B001B03
:10415000001B000000000000000000000000000044
:10416000000000000000000000000000801980191D
:1041700080198019C07FC07F80190033C07FC07F45
:104180000033003300330033000000000000000063
:10419000001E003F807580650074003C001E000713
:1041A0008005806580658075003F001E0004000466
:1041B00000000000007000D840D8C0D880D900733B
:1041C0000006000C801BC036C066C046C0068003D7
:1041D0000000000000000000001E003F003300331C
:1041E0000033001E000CC03CC066806380618063A9
:1041F000C03E801C0000000000000000000C000C0D
:10420000000C000C000C000000000000000000008A
:10421000000000000000000000000000000000009E
:10422000800000010003000600060004000C000CE2
:10423000000C000C000C000C00040006000600033B
:1042400000018000002000100018000C000C000489
:104250000006000600060006000600060004000C2A
:10426000000C001800100020000C002D003F001E64
:10427000003300000000000000000000000000000B
:10428000000000000000000000000000000000002E
:10429000000C000C000C000CC0FFC0FF000C000C58
:1042A000000C000C000000000000000000000000F6
:1042B00000000000000000000000000000000000FE
:1042C0000000000000000000000C000C00040004CE
:1042D00000080000000000000000000000000000D6
:1042E00000000000001E001E000000000000000092
:1042F00000000000000000000000000000000000BE
:1043000000000000000000000000000000000000AD
:10431000000C000C0000000000000000000300037F
:1043200000030006000600060006000C000C000C4E
:10433000000C001800180018000000000000000029
:10434000001E003F0033806180618061806D806D60
:104350008061806180610033003F001E000000002A
:10436000000000000006000E001E003600260006B9
:10437000000600060006000600060006000600060D
:104380000000000000000000001E003F80738061FC
:104390008061800100030006000C001800300060FE
:1043A000807F807F0000000000000000001C003EB5
:1043B000006300630003000E000E00038001800113
:1043C00080618073003F001E0000000000000000BC
:1043D0000006000E000E001E001E001600360036FD
:1043E0000066807F807F0006000600060000000057
:1043F00000000000007F007F006000600060006E31
:10440000007F80638001800180618073003F001E17
:104410000000000000000000001E003F80338061AB
:104420000060006E007F80738061806180618033F6
:10443000003F001E0000000000000000807F807F21
:1044400080010003000300060006000C000C000CB5
:10445000000800180018001800000000000000000C
:10446000001E003F8063806180610021001E003FCC
:104470008061806180618061003F001E000000005B
:1044800000000000001E003F0073806180618061B9
:104490008073803F801D800180610073003F001E9B
:1044A000000000000000000000000000000000000C
:1044B000000C000C000000000000000000000000E4
:1044C000000C000C000000000000000000000000D4
:1044D000000000000000000C000C000000000000C4
:1044E00000000000000C000C0004000400080000A4
:1044F00000000000000080008003000E0038006013
:104500000038000E80038000000000000000000062
:10451000000000000000000000000000807F807F9D
:1045200000000000807F807F00000000000000008D
:10453000000000000000000000000000000000403B
:104540000070001C000780010007001C0070004084
:10455000000000000000000000000000001F803F7D
:10456000C071C060C000C00180030007000E000CD5
:10457000000C0000000C000C000000000000000017
:10458000001E003F803180718063806F806D806D80
:10459000806F806700600032003E001C0000000059
:1045A00000000000000E000E001B001B001B001B83
:1045B00080318031803F803F8031C060C060C0600A
:1045C0000000000000000000007C007E006300632B
:1045D00000630063007E007E006380618061806311
:1045E000007F007E0000000000000000001E003F71
:1045F00080318061006000600060006000600060E9
:1046000080618031003F001E0000000000000000BB
:10461000007C007F006380638061806180618061D5
:104620008061806100630063007E007C0000000008
:1046300000000000807F807F0060006000600060FC
:10464000007F007F0060006000600060807F807FEE
:104650000000000000000000807F807F006000609C
:1046600000600060007F007F00600060006000600C
:10467000006000600000000000000000001E003F1D
:1046800080318061006000600060806380638061D1
:1046900080618031803F001E0000000000000000AB
:1046A000806180618061806180618061807F807FC6
:1046B00080618061806180618061806100000000B4
:1046C00000000000003F003F000C000C000C000C3C
:1046D000000C000C000C000C000C000C003F003F14
:1046E00000000000000000008001800180018001C6
:1046F0008001800180018001800180618061807380
:10470000003F001E0000000000000000C06080614B
:10471000006300660066006C0078007C006600663E
:10472000006380618061C060000000000000000044
:104730000060006000600060006000600060006079
:104740000060006000600060807F807F00000000EB
:1047500000000000C071C071C07BC07AC06AC06A2E
:10476000C06EC064C060C060C060C060C060C06037
:104770000000000000000000807180718079807965
:104780008079806D806D806D8065806780678067CF
:10479000806380630000000000000000001E003FF6
:1047A00000338061806180618061806180618061AF
:1047B00080610033003F001E000000000000000088
:1047C000007E007F80638061806180618063007F04
:1047D000007E00600060006000600060000000007B
:1047E00000000000001E003F003380618061806196
:1047F000806180618061806580670033803F401EFA
:104800000000000000000000007E007F80638061E7
:1048100080618063007F007E0066006300638061CA
:104820008061C0600000000000000000000E001F5A
:104830008031803100300038001E00078003806125
:1048400080618031003F001E000000000000000079
:10485000C0FFC0FF000C000C000C000C000C000C92
:10486000000C000C000C000C000C000C0000000000
:1048700000000000806180618061806180618061F2
:10488000806180618061806180618073003F001E73
:104890000000000000000000C060C060C060803107
:1048A00080318031001B001B001B001B000E000E1E
:1048B000000E00040000000000000000C0C0C0C0E6
:1048C000C0C0C0C0C0C0C0CC804C804C805E805294
:1048D0008052807380618061000000000000000051
:1048E000C0C0806080610033003B001E000C000CE3
:1048F000001E001F003B80718061C0C000000000EE
:1049000000000000C0C08061806100330033001EE1
:10491000001E000C000C000C000C000C000C000C25
:104920000000000000000000803F803F8001000385
:1049300000030006000C000C001800180030006096
:10494000807F807F0000000000000000000F000F4B
:10495000000C000C000C000C000C000C000C000CF7
:10496000000C000C000C000C000C000C000F000FE1
:10497000001800180018000C000C000C000C0006B9
:10498000000600060006000300030003000000000C
:1049900000000000001E001E0006000600060006C3
:1049A00000060006000600060006000600060006D7
:1049B00000060006001E001E000C000C001E001267
:1049C00000330033806180610000000000000000BF
:1049D00000000000000000000000000000000000D7
:1049E00000000000000000000000000000000000C7
:1049F00000000000000000000000E0FF00000000D8
:104A000000380018000C000000000000000000004A
:104A10000000000000000000000000000000000096
:104A2000000000000000000000000000001F803FA8
:104A300080618001801F803F80618063807FC038FB
:104A400000000000000000000060006000600060E6
:104A5000006E007F807380618061806180618073FF
:104A6000007F006E00000000000000000000000059
:104A700000000000001E003F807380610060006045
:104A800080618073003F001E0000000000000000F5
:104A90008001800180018001801D803F80738061E2
:104AA0008061806180618073803F801D0000000014
:104AB000000000000000000000000000001E003F99
:104AC00000738061807F807F00608071003F001EE6
:104AD0000000000000000000C007C00F000C000C28
:104AE000807F807F000C000C000C000C000C000C80
:104AF000000C000C0000000000000000000000009E
:104B000000000000801D803F8073806180618061B3
:104B100080618073803F801D80018063007F003E44
:104B20000060006000600060006F807F80718061C5
:104B3000806180618061806180618061000000002F
:104B4000000000000006000600000000003E003EDD
:104B50000006000600060006000600060006000625
:104B60000000000000000000000600060000000039
:104B7000003E003E00060006000600060006000695
:104B80000006000600060046007E003C0060006053
:104B900000600060806100630066006C007C00764D
:104BA000006300638061C06000000000000000003E
:104BB000003E003E00060006000600060006000655
:104BC00000060006000600060006000600000000C1
:104BD00000000000000000000000000080DDC0FFB9
:104BE000C0CEC0CCC0CCC0CCC0CCC0CCC0CCC0CC63
:104BF00000000000000000000000000000000000B5
:104C0000006F807F807180618061806180618061E0
:104C100080618061000000000000000000000000D2
:104C200000000000001E003F807380618061806191
:104C300080618073003F001E000000000000000043
:104C40000000000000000000006E007F80738061A3
:104C50008061806180618073007F006E0060006011
:104C6000006000600000000000000000801D803F28
:104C7000807380618061806180618073803F801D6E
:104C80008001800180018001000000000000000020
:104C90000067803F003900300030003000300030C5
:104CA00000300030000000000000000000000000A4
:104CB00000000000001E803F80610060007F803F98
:104CC00080018061007F001E0000000000000000E5
:104CD0000000000800180018007F007F001800186E
:104CE0000018001800180018801F800F0000000036
:104CF00000000000000000000000000080618061F2
:104D0000806180618061806180618063807F803D9F
:104D10000000000000000000000000000000000093
:104D2000C060803180318031001B001B001B000EF1
:104D3000000E00060000000000000000000000005F
:104D40000000000080DD80DD80DD0055005500554D
:104D50000077007700220022000000000000000021
:104D60000000000000000000806100330033001EDE
:104D7000000C000C001E00330033806100000000B6
:104D80000000000000000000000000008061806161
:104D9000803100330033001B001B001B000E000E8F
:104DA000000E001C007C00700000000000000000ED
:104DB000C07FC07F800100030006000C0018003097
:104DC000C07FC07F0000000000000000800380075B
:104DD00000060006000600060006000E001C001C6F
:104DE000000E00060006000600060006800780038D
:104DF0000006000600060006000600060006000683
:104E00000006000600060006000600060006000672
:104E1000000600060038003C000C000C000C000CE2
:104E2000000C000E00070007000E000C000C000C28
:104E3000000C000C003C00380000000000000000E6
:104E4000000000008038807F004700000000000064
:0C4E500000000000000000000000000056
:104E5C0000000240000100000100000008000000FA
:104E6C0000080240000200000400000009000000DD
:104E7C0000000000010203040102030406070809F4
:104E8C00000000D000140240800000002000000050
:104E9C000700000000140240000200002000000087
:104EAC000900000000140240000100002000000076
:0C4EBC0008000000004100080B0012007C
:0400000508000000EF
:00000001FF
